:100000000C9462000C948A000C948A000C948A0070
:100010000C948A000C948A000C948A000C948A0038
:100020000C948A000C948A000C948A000C94D706D5
:100030000C948A000C948A000C948A000C948A0018
:100040000C9444050C948A000C94B9040C94930409
:100050000C948A000C948A000C948A000C948A00F8
:100060000C948E050C948A000000000024002700E8
:100070002A0000000000250028002B0000000000DE
:1000800023002600290004040404040404040202DA
:100090000202020203030303030301020408102007
:1000A0004080010204081020010204081020000012
:1000B0000008000201000003040700000000000027
:1000C0000000540B11241FBECFEFD8E0DEBFCDBF20
:1000D00012E0A0E0B1E0E6E0FCE102C005900D9284
:1000E000A431B107D9F723E0A4E1B2E001C01D9229
:1000F000A93DB207E1F710E0C2E6D0E004C02197C5
:10010000FE010E94BA0BC136D107C9F70E94CF0881
:100110000C94010E0C940000CF92DF92EF92FF92AC
:100120000F931F93CF93DF936C017A018B01C0E093
:10013000D0E0CE15DF0589F0D8016D918D01D60193
:10014000ED91FC910190F081E02DC6010995892B7C
:1001500011F47E0102C02196ECCFC701DF91CF914F
:100160001F910F91FF90EF90DF90CF900895FC01C9
:10017000918D828D981761F0828DDF01A80FB11DDE
:100180005D968C91928D9F5F9F73928F90E0089502
:100190008FEF9FEF0895FC01918D828D981731F0BC
:1001A000828DE80FF11D858D90E008958FEF9FEF10
:1001B0000895FC01918D228D892F90E0805C9F4FE6
:1001C000821B91098F739927089586E293E00E941C
:1001D000D90021E0892B09F420E0822F0895FC0149
:1001E000848DDF01A80FB11DA35ABF4F2C91848DC0
:1001F00090E001968F739927848FA689B7892C93F5
:10020000A089B1898C9180648C93938D848D98138F
:1002100006C00288F389E02D80818F7D8083089558
:10022000EF92FF920F931F93CF93DF93EC0181E046
:10023000888F9B8D8C8D981305C0E889F989808102
:1002400085FD24C0F62E0B8D10E00F5F1F4F0F733E
:100250001127E02E8C8DE8120CC00FB607FCFACFE8
:10026000E889F989808185FFF5CFCE010E94EF00F2
:10027000F1CF8B8DFE01E80FF11DE35AFF4FF082A5
:100280000B8FEA89FB898081806207C0EE89FF8934
:100290006083E889F98980818064808381E090E0CF
:1002A000DF91CF911F910F91FF90EF900895CF9321
:1002B000DF93EC01888D8823C9F0EA89FB8980816E
:1002C00085FD05C0A889B9898C9186FD0FC00FB640
:1002D00007FCF5CF808185FFF2CFA889B9898C9181
:1002E00085FFEDCFCE010E94EF00E7CFDF91CF91E8
:1002F000089580E090E0892B29F00E94E5008111AB
:100300000C9400000895CF93DF9390E0FC01E65633
:10031000FF4F2491FC01EA57FF4F8491882361F13C
:1003200090E0880F991FFC01E859FF4FC591D491C7
:10033000FC01EE58FF4FA591B491611109C09FB720
:10034000F8948881209582238883EC912E230BC01A
:10035000623061F49FB7F8943881822F80958323AF
:100360008883EC912E2B2C939FBF06C08FB7F894F7
:10037000E8812E2B28838FBFDF91CF9108953FB75F
:10038000F8948091060390910703A0910803B0911F
:10039000090326B5A89B05C02F3F19F00196A11DA2
:1003A000B11D3FBFBA2FA92F982F8827820F911D0B
:1003B000A11DB11DBC01CD0142E0660F771F881F52
:1003C000991F4A95D1F7089585ED8093BC008091DF
:1003D000BC0084FDFCCF10920C0308954091B8023C
:1003E000262F30E0240F311D21323105DCF420911D
:1003F0000C032430C9F4FC0180E090E0861758F427
:100400003091B8022191DC01AA56BD4FA30FB11D56
:100410002C930196F3CF8091B802680F6093B802D5
:1004200080E0089581E0089582E00895089581E0D4
:1004300090E03091100320910F03321710F480E008
:1004400090E0919581959109089580911003909184
:100450000F03891730F48F5F8093100380E090E0E2
:1004600008958FEF9FEF089580910F0390E0209102
:100470001003821B91090895CF92DF92EF92FF92B1
:100480000F931F93CF93DF937C01262F972F8A0121
:1004900080919502882391F0C62FD72F6E01C40E4C
:1004A000D51ECC15DD0571F06991D701ED91FC9158
:1004B0000190F081E02DC7010995F3CF642F822FC1
:1004C0000E94EE01C801DF91CF911F910F91FF9023
:1004D000EF90DF90CF900895CF93DF931F92CDB729
:1004E000DEB76983209195022223D1F020910D037C
:1004F000203240F021E030E0FC013383228380E0B1
:1005000090E015C080910E03E82FF0E0EB58FD4F0E
:10051000998190838F5F80930E0380930D0305C0B4
:1005200061E0CE0101960E94EE0181E090E00F9023
:10053000DF91CF910895CF936295607F4111616003
:1005400021116460FC01258121116860FC01C481D6
:1005500081E080939502C093740210920E03109272
:100560000D0383EC93E00E946C0280910D038132B5
:1005700008F046C090910C039111FCCF92E090934B
:100580000C0391E090930B039FEF9093DD02109288
:10059000FF028093FE02A5E7B2E02EED32E0F90102
:1005A0009E2F921B981718F49D919193F9CF10925A
:1005B000000380910003CC0FC82BC09300038091EF
:1005C0000A03813061F410920A0380910003809342
:1005D000BB008091BC0083FDF8CF85EC01C085EEA7
:1005E0008093BC0080910C038230E1F38091DD02A6
:1005F0008F3F31F08091DD02803211F08091DD0279
:1006000010920E0310920D0310929502CF9108954F
:100610000F931F93CF93DF93EC01162F042F21E04C
:100620000E949B0220E0402F612FCE010E949B027E
:100630008FE890E00197F1F7DF91CF911F910F9133
:1006400008950E94FC0D6115710579F0FB01019080
:100650000020E9F73197AF01461B570BDC01ED9104
:10066000FC910280F381E02D099480E090E00895F0
:100670004F925F926F927F92EF92FF920F931F9330
:10068000CF93DF93CDB7DEB7A1970FB6F894DEBF57
:100690000FBECDBF7C01FA01CB0119A2223008F4B4
:1006A0002AE08E010F5D1F4F422E512C612C712CC0
:1006B000BF01A30192010E94980BF901CA010150E8
:1006C00011096A3014F4605D01C0695CD8016C9353
:1006D000232B242B252B61F7B801C7010E9423038C
:1006E000A1960FB6F894DEBF0FBECDBFDF91CF91BC
:1006F0001F910F91FF90EF907F906F905F904F90C0
:100700000895CF92DF92EF92FF920F931F93CF93B2
:10071000DF93EC016A017B01E881F9810190F081AE
:10072000E02D6DE209958C0144275527BA014C193B
:100730005D096E097F092AE0CE010E943803800F0F
:10074000911FDF91CF911F910F91FF90EF90DF905C
:10075000CF9008954F925F926F927F928F929F9267
:10076000AF92BF92CF92DF92EF92FF92CF93DF933F
:10077000EC016A017B01B22E9A01AB01C701B601FF
:100780000E94F70D882319F060E371E027C026016D
:100790003701E89477F82FEF3FEF4FE75FE7C301AA
:1007A000B2010E94F70D81110DC02FEF3FEF4FE70F
:1007B0005FE7C301B2010E942D0C18161CF464E31C
:1007C00071E00CC02FEF3FEF4FE75FE4C701B601C8
:1007D0000E94850D18169CF468E371E0CE01DF914C
:1007E000CF91FF90EF90DF90CF90BF90AF909F9010
:1007F0008F907F906F905F904F900C9423032FEF1A
:100800003FEF4FE75FECC701B6010E942D0C87FD5B
:10081000E3CF20E030E0A901C701B6010E942D0C12
:1008200087FF0EC0E881F9810190F081E02D6DE233
:10083000CE0109954C01F7FAF094F7F8F09402C054
:10084000812C912CA12C60E070E080E09FE3AB1440
:1008500041F020E030E040E251E40E94320CA394E9
:10086000F6CF9B01AC01C701B6010E94C10B2B0161
:100870003C010E94A40C6B017C010E94D30C9B01E3
:10088000AC01C301B2010E94C00B2B013C012AE064
:10089000B701A601CE010E9438037C01E80CF91CC7
:1008A000BB2039F061E771E0CE010E942303E80E1E
:1008B000F91EDB2CDD2029F120E030E040E251E49C
:1008C000C301B2010E948A0D2B013C010E94A40CBD
:1008D0004B01A12CB12C2AE0B501A401CE010E944C
:1008E0003803E80EF91EC501B4010E94D30C9B0128
:1008F000AC01C301B2010E94C00B2B013C01DA9490
:10090000D9CFC701DF91CF91FF90EF90DF90CF90CB
:10091000BF90AF909F908F907F906F905F904F901F
:1009200008950C9423031F920F920FB60F92112477
:100930002F933F934F935F936F937F938F939F93E7
:10094000AF93BF93EF93FF9386E293E00E94EF0093
:10095000FF91EF91BF91AF919F918F917F916F9197
:100960005F914F913F912F910F900FBE0F901F906D
:1009700018951F920F920FB60F9211242F938F93F9
:100980009F93EF93FF93E0913603F09137038081BB
:10099000E0913C03F0913D0382FD12C09081809173
:1009A0003F038F5F8F7320914003821751F0E091D6
:1009B0003F03F0E0EA5DFC4F958F80933F0301C059
:1009C0008081FF91EF919F918F912F910F900FBE9A
:1009D0000F901F901895833081F028F4813099F0A2
:1009E0008230A1F008958730A9F08830B9F08430C2
:1009F000D1F4809180008F7D03C0809180008F773B
:100A000080938000089584B58F7702C084B58F7D70
:100A100084BD08958091B0008F7703C08091B000AD
:100A20008F7D8093B00008951F93CF93DF93282F7D
:100A300030E0F901E255FF4F8491F901E656FF4F8E
:100A4000D491F901EA57FF4FC491CC23C9F0162F76
:100A500081110E94EB04EC2FF0E0EE0FFF1FEE5827
:100A6000FF4FA591B4918FB7F894111105C09C91D7
:100A7000ED2FE095E92302C0EC91ED2BEC938FBFB5
:100A8000DF91CF911F9108951F920F920FB60F9291
:100A900011242F933F938F939F93AF93BF93809194
:100AA000020390910303A0910403B09105033091D8
:100AB000010323E0230F2D3720F40196A11DB11D62
:100AC00005C026E8230F0296A11DB11D2093010346
:100AD0008093020390930303A0930403B093050350
:100AE0008091060390910703A0910803B091090338
:100AF0000196A11DB11D8093060390930703A09357
:100B00000803B0930903BF91AF919F918F913F91DB
:100B10002F910F900FBE0F901F9018951F920F925C
:100B20000FB60F9211242F933F934F935F936F93C0
:100B30007F938F939F93AF93BF93EF93FF93809196
:100B4000B900887F803609F49CC068F5883209F4C2
:100B50005BC090F4803109F454C038F4882309F460
:100B6000F6C0883009F44DC0F6C0883109F44CC095
:100B7000803209F45DC0EFC0803409F468C048F4E5
:100B8000803309F455C0883309F0E5C08093DD0255
:100B9000D8C0803509F44FC0883509F45DC0883469
:100BA00009F0D9C0D6C0883909F4C7C0A8F488377D
:100BB00009F467C038F4883609F463C0803709F453
:100BC00060C0C9C0883809F4B8C0803909F45FC072
:100BD000803809F0C0C05BC0803B09F486C038F49F
:100BE000803A09F466C0883A09F47FC0B4C0803CFA
:100BF00009F4A7C0883C09F4A4C0883B09F48AC062
:100C0000AAC08091000310C09091FF028091FE0263
:100C1000981770F5E091FF0281E08E0F8093FF023C
:100C2000F0E0E252FD4F80818093BB0085EC86C0EE
:100C30008093DD028EC0E091FF0281E08E0F8093F1
:100C4000FF028091BB00F0E0E252FD4F8083909163
:100C5000FF028091FE026EC0E091FF0281E08E0FE4
:100C60008093FF028091BB00F0E0E252FD4F808351
:100C700080910B0381116DC081E080930A0384EAA7
:100C800061C083E080930C031092DC02CFCF80918F
:100C9000DC02803208F051C0E091DC0281E08E0F6E
:100CA0008093DC028091BB00F0E0E454FD4F808330
:100CB000BDCF85EC8093BC0010920C038091DC02C8
:100CC000803230F4E091DC02F0E0E454FD4F108219
:100CD0006091DC0270E0E091BA02F091BB028CEB13
:100CE00092E009951092DC0236C084E080930C03F8
:100CF0001092B9021092B802E091B602F091B702D8
:100D000009958091B802811105C081E08093B802F5
:100D100010929602E091B90281E08E0F8093B902A1
:100D2000F0E0EA56FD4F80818093BB009091B902BC
:100D30008091B802981708F479CF85E88093BC00B9
:100D40000AC085EC8093BC0010920C0304C0109282
:100D5000DD020E94E401FF91EF91BF91AF919F915D
:100D60008F917F916F915F914F913F912F910F9054
:100D70000FBE0F901F9018950F931F93CF93DF9383
:100D80008C01C62FD42F62956F700E9408036C2FC0
:100D90006F704D2FC801DF91CF911F910F910C946F
:100DA000080341E00E94BC0681E090E008951F9294
:100DB0000F920FB60F921124CF92DF92EF92FF9213
:100DC0002F933F934F935F936F937F938F939F9353
:100DD000AF93BF93CF93DF93EF93FF930E94980855
:100DE0009093140380931303C1E0809113039091B7
:100DF0001403892B09F042C18091210381113EC166
:100E000020E030E040E85FE3609170027091710291
:100E100080917202909173020E94C10B6B017C0160
:100E200060937002709371028093720290937302C8
:100E30000E949808909314038093130318161906C0
:100E40000CF0F6C0C0916E02D0916F0220E030E04D
:100E500040E85AE3C701B6010E948A0D20E030E065
:100E600040E251E40E94320CFE01EE0FFF1FEE0F34
:100E7000FF1FEA5BFD4F60837183828393836093DE
:100E80001D0370931E0380931F03909320032196EC
:100E9000D0936F02C0936E02109221032A970CF434
:100EA000BEC06091420270914302809144029091D1
:100EB0004502C6E4D2E029913991499159910E94A5
:100EC000C10B22E0CE36D207B1F720E030E040E29D
:100ED00051E40E94320C6093190370931A038093BB
:100EE0001B0390931C031092420210924302109233
:100EF0004402109245022091400230914102F901D2
:100F0000EE0FFF1FEE0FFF1FE85EFD4F6083718342
:100F100082839383C901019690934102809340029A
:100F200063EE71E086E293E00E9491044091190320
:100F300050911A0360911B0370911C0322E086E21A
:100F400093E00E94AA036EE471E086E293E00E94BF
:100F5000230363E771E086E293E00E9491048091AD
:100F60004002909141020A970CF455C0609114021E
:100F7000709115028091160290911702C8E1D2E09B
:100F800029913991499159910E94C10B22E0C034B5
:100F9000D207B1F760931402709315028093160282
:100FA0009093170220E030E040E251E40E94320CBE
:100FB000609315037093160380931703909318039F
:100FC0006EEE71E086E293E00E9491044091150379
:100FD00050911603609117037091180322E086E286
:100FE00093E00E94AA036EE471E086E293E00E941F
:100FF000230363E771E086E293E00E94910410927C
:1010000014021092150210921602109217021092FA
:1010100041021092400210926F0210926E021092E2
:10102000700210927102109272021092730226C026
:1010300020E030E040E85AE3C701B6010E948A0D83
:1010400020E030E040E251E40E94320C20E030E049
:1010500040E251E40E94850D18160CF0C6CE8AEFCE
:1010600091E00E948508C0932103109270021092B3
:1010700071021092720210927302B7CEFF91EF913B
:10108000DF91CF91BF91AF919F918F917F916F91A0
:101090005F914F913F912F91FF90EF90DF90CF9014
:1010A0000F900FBE0F901F901895CF93DF93CDB781
:1010B000DEB728970FB6F894DEBF0FBECDBF28E08D
:1010C000E0E0F1E0DE01119601900D922A95E1F742
:1010D0002091D803621710F06FEF620FFE01319676
:1010E000E60FF11DE60FF11D9081682F690F606812
:1010F00040E08FEC93E028960FB6F894DEBF0FBE69
:10110000CDBFDF91CF910C94BC06CF93DF93BC0190
:1011100086E293E00E942303EC016EE471E086E234
:1011200093E00E9423038C0F9D1FDF91CF910895C0
:1011300080E480937C0080917A00806480937A00C0
:1011400080917A0086FDFCCF809178002091790013
:1011500090E0922B0895CF93DF93E8EBF0E0849139
:10116000E4EAF0E0D491E0E9F0E0C491CC2391F01E
:1011700081110E94EB04EC2FF0E0EE0FFF1FE4580A
:10118000FF4FA591B491EC91ED2381E090E021F423
:1011900080E002C080E090E0DF91CF9108957894E4
:1011A00084B5826084BD84B5816084BD85B582606C
:1011B00085BD85B5816085BD80916E00816080931D
:1011C0006E00109281008091810082608093810086
:1011D0008091810081608093810080918000816096
:1011E000809380008091B10084608093B1008091F1
:1011F000B00081608093B00080917A008460809319
:101200007A0080917A00826080937A0080917A00DF
:10121000816080937A0080917A00806880937A0060
:101220001092C10061E088E00E94830160E08AE0E2
:101230000E94830160E08EE00E94830160E08FE005
:101240000E948301E0913603F091370312E010838E
:10125000E0913203F09133031082E0913403F09176
:1012600035038FEC808310923E03E0913A03F091B6
:101270003B0386E08083E0913803F091390380815D
:1012800080618083E0913803F09139038081886028
:101290008083E0913803F0913903808180688083F6
:1012A000E0913803F091390380818F7D8083109322
:1012B000D80388E08093D5031092100310920F0397
:1012C00010920E0310920D0310920C0381E0809394
:1012D0000B0310920A0361E082E10E94140561E0B1
:1012E00083E10E9414058091B9008E7F8093B9003C
:1012F0008091B9008D7F8093B90088E48093B80015
:1013000085E48093BC0020E040E060E08FEC93E057
:101310000E949B028BE39DE00197F1F740E063E0C0
:101320008FEC93E00E940803CBE4D6E4CE01019752
:10133000F1F740E063E08FEC93E00E94080321970F
:10134000F1F740E063E08FEC93E00E94080383E54F
:1013500092E00197F1F740E062E08FEC93E00E94A9
:1013600008036091D503606240E08FEC93E00E9437
:10137000BC0684E08093D60340E06CE08FEC93E001
:101380000E94BC0640E061E08FEC93E00E94BC0646
:10139000CBE3DFE1CE010197F1F71093D70340E0F3
:1013A00066E08FEC93E00E94BC068FEF8093D4033D
:1013B00020E041E060E08FEC93E00E949B0240E07F
:1013C00061E08FEC93E00E94BC062197F1F760E0AA
:1013D00080E00E9455086CE371E08FEC93E00E947E
:1013E00091040E9498089093140380931303892B0F
:1013F00009F07DC0809111039091120301969093A2
:1014000012038093110366E471E086E293E00E9488
:1014100091044091110350911203052E000C660BAC
:10142000770B77FF05C086E293E00E94810305C039
:101430002AE086E293E00E9438036EE471E086E2DF
:1014400093E00E94230360E08AE00E9455084091E7
:10145000110350911203052E000C660B770B77FFDA
:1014600005C08FEC93E00E94810305C02AE08FEC59
:1014700093E00E9438030E94BF014B015C0188EE9B
:10148000C82E83E0D82EE12CF12C0E94BF01DC0194
:10149000CB0188199909AA09BB09883E9340A10587
:1014A000B10558F021E0C21AD108E108F10888EE30
:1014B000880E83E0981EA11CB11CC114D104E10464
:1014C000F10419F780911103909112030A970CF41B
:1014D00088CF81E591E00E9485086CE571E08FEC92
:1014E00093E00E94910481E0809321030CC086E682
:1014F00091E00E94850863E771E086E293E00E9434
:101500009104109221031092120310921103F89487
:101510001092800010928100109285001092840039
:1015200084E690E090938900809388008091810008
:101530008860809381008091810085608093810024
:1015400080916F00826080936F00789460E080E00B
:101550000E94550868E871E08FEC93E00E949104C6
:1015600078940E94AB0890932503809324030197FD
:1015700011F569E971E086E293E00E9491040E940E
:10158000AB089093250380932403892BC1F78091A6
:10159000220390912303843091058CF701968330C8
:1015A00091052CF4909323038093220304C010929E
:1015B0002303109222038091220390912303813010
:1015C000910509F440C08230910509F44FC0892B80
:1015D00009F067C0809121038823C9F061E088E0A9
:1015E0000E94140560E080E00E94550862EA71E004
:1015F0008FEC93E00E94910461E080E00E94550826
:1016000063EB71E08FEC93E00E9491044AC060E0CC
:1016100088E00E94140561E081E00E94550863ECB7
:1016200071E08FEC93E00E94910440911D03509172
:101630001E0360911F037091200322E08FEC93E062
:101640000E94AA032EC061E082E00E9455086EEC61
:1016500071E08FEC93E00E94910440911903509146
:101660001A0360911B0370911C0312C061E081E0BA
:101670000E94550868ED71E08FEC93E00E949104A0
:101680004091150350911603609117037091180350
:1016900022E08FEC93E00E94AA0360E088E00E94C1
:1016A00014050E9479015DCFE6E2F3E01382128215
:1016B00088EE93E0A0E0B0E084839583A683B783AF
:1016C0002CE031E03183208325EC30E0358724871E
:1016D00024EC30E03787268720EC30E0318B208BFC
:1016E00021EC30E0338B228B22EC30E0358B248BE5
:1016F00026EC30E0378B268B118E128E138E148ED3
:10170000E3ECF3E01382128284839583A683B7838C
:101710008CE191E091838083EFECF3E013821282FD
:101720008CE291E0918380838FE384831582089516
:10173000A1E21A2EAA1BBB1BFD010DC0AA1FBB1FD5
:10174000EE1FFF1FA217B307E407F50720F0A21B47
:10175000B30BE40BF50B661F771F881F991F1A94B4
:1017600069F760957095809590959B01AC01BD01DE
:10177000CF010895EE0FFF1F0590F491E02D09941D
:101780005058BB27AA270E94D80B0C944B0D0E94DF
:101790003D0D38F00E94440D20F039F49F3F19F4BC
:1017A00026F40C943A0D0EF4E095E7FB0C94340DFE
:1017B000E92F0E945C0D58F3BA176207730784077C
:1017C000950720F079F4A6F50C947E0D0EF4E095C3
:1017D0000B2EBA2FA02D0B01B90190010C01CA01EB
:1017E000A0011124FF27591B99F0593F50F4503E96
:1017F00068F11A16F040A22F232F342F4427585F88
:10180000F3CF469537952795A795F0405395C9F79F
:101810007EF41F16BA0B620B730B840BBAF0915057
:10182000A1F0FF0FBB1F661F771F881FC2F70EC0F6
:10183000BA0F621F731F841F48F4879577956795C9
:10184000B795F7959E3F08F0B0CF9395880F08F0B5
:101850009927EE0F9795879508950E94100D08F42B
:1018600081E008950E94460C0C944B0D0E94440D9B
:1018700058F00E943D0D40F029F45F3F29F00C9490
:10188000340D51110C947F0D0C943A0D0E945C0D97
:1018900068F39923B1F3552391F3951B550BBB279F
:1018A000AA2762177307840738F09F5F5F4F220FE4
:1018B000331F441FAA1FA9F335D00E2E3AF0E0E8DB
:1018C00032D091505040E695001CCAF72BD0FE2F25
:1018D00029D0660F771F881FBB1F261737074807B9
:1018E000AB07B0E809F0BB0B802DBF01FF27935871
:1018F0005F4F3AF09E3F510578F00C94340D0C94F4
:101900007F0D5F3FE4F3983ED4F386957795679516
:10191000B795F7959F5FC9F7880F911D96958795A5
:1019200097F90895E1E0660F771F881FBB1F6217C4
:1019300073078407BA0720F0621B730B840BBA0B82
:10194000EE1F88F7E09508950E94640D88F09F5778
:1019500098F0B92F9927B751B0F0E1F0660F771FD3
:10196000881F991F1AF0BA95C9F714C0B13091F0C9
:101970000E947E0DB1E008950C947E0D672F782FA4
:101980008827B85F39F0B93FCCF38695779567958E
:10199000B395D9F73EF490958095709561957F4FFA
:1019A0008F4F9F4F0895E89409C097FB3EF49095A0
:1019B0008095709561957F4F8F4F9F4F9923A9F028
:1019C000F92F96E9BB279395F695879577956795B7
:1019D000B795F111F8CFFAF4BB0F11F460FF1BC0FB
:1019E0006F5F7F4F8F4F9F4F16C0882311F096E98E
:1019F00011C0772321F09EE8872F762F05C066233C
:101A000071F096E8862F70E060E02AF09A95660FF4
:101A1000771F881FDAF7880F9695879597F90895AD
:101A2000990F0008550FAA0BE0E8FEEF16161706EF
:101A3000E807F907C0F012161306E407F50798F057
:101A4000621B730B840B950B39F40A2661F0232B70
:101A5000242B252B21F408950A2609F4A140A695EC
:101A60008FEF811D811D089597F99F6780E870E0D1
:101A700060E008959FEF80EC089500240A94161604
:101A8000170618060906089500240A94121613066C
:101A9000140605060895092E0394000C11F48823FA
:101AA00052F0BB0F40F4BF2B11F460FF04C06F5F16
:101AB0007F4F8F4F9F4F089557FD9058440F551FEC
:101AC00059F05F3F71F04795880F97FB991F61F0C0
:101AD0009F3F79F087950895121613061406551F37
:101AE000F2CF4695F1DF08C0161617061806991FA3
:101AF000F1CF86957105610508940895E894BB2798
:101B000066277727CB0197F908950E94100D08F4F6
:101B10008FEF08950E949D0D0C944B0D0E943D0D7A
:101B200038F00E94440D20F0952311F00C94340DF0
:101B30000C943A0D11240C947F0D0E945C0D70F3EF
:101B4000959FC1F3950F50E0551F629FF001729F62
:101B5000BB27F00DB11D639FAA27F00DB11DAA1F71
:101B6000649F6627B00DA11D661F829F2227B00DBE
:101B7000A11D621F739FB00DA11D621F839FA00D49
:101B8000611D221F749F3327A00D611D231F849F99
:101B9000600D211D822F762F6A2F11249F575040F0
:101BA0009AF0F1F088234AF0EE0FFF1FBB1F661F6B
:101BB000771F881F91505040A9F79E3F510580F034
:101BC0000C94340D0C947F0D5F3FE4F3983ED4F3F6
:101BD000869577956795B795F795E7959F5FC1F7D8
:101BE000FE2B880F911D9695879597F908950E9471
:101BF000100D880B990B089581E090E0F8940C94F7
:061C0000010EF894FFCF75
:101C060000004000140054000000000010018C0089
:101C1600D900B700CB005701000000006C023C025F
:101C2600340225021702160200000000D1068C00BD
:101C36006E616E00696E66006F76660053656C664F
:101C46002054657374007361796163203A000D0A4C
:101C560000484154412076617272720048415441F5
:101C660020564152210043616C697369796F722E67
:101C76002E2E002A2A2A2A2A2A2A2A2A2A2A2A2AE0
:101C86002A2A2A2A2A2A0A00556E697665727361FB
:101C96006C20436C696E636800626173696C646989
:101CA6000A0048617461207661722020202020207D
:101CB600202000436F6E2E547562652054696B6157
:101CC6006C69002020416E6C696B203A2000536FCE
:101CD6006E203130203A200020536F6E2031303094
:101CE600203A006F6E6C756B4F72743A20007975EE
:101CF6007A6C756B6F72743A2000212121212121A3
:101D060021204841544120564152202121212121A0
:041D16002121200067
:107E0000112484B714BE81FFF0D085E080938100F7
:107E100082E08093C00088E18093C10086E0809377
:107E2000C20080E18093C4008EE0C9D0259A86E02C
:107E300020E33CEF91E0309385002093840096BBD3
:107E4000B09BFECF1D9AA8958150A9F7CC24DD24C4
:107E500088248394B5E0AB2EA1E19A2EF3E0BF2EE7
:107E6000A2D0813461F49FD0082FAFD0023811F036
:107E7000013811F484E001C083E08DD089C08234E0
:107E800011F484E103C0853419F485E0A6D080C0E4
:107E9000853579F488D0E82EFF2485D0082F10E0AE
:107EA000102F00270E291F29000F111F8ED06801E7
:107EB0006FC0863521F484E090D080E0DECF843638
:107EC00009F040C070D06FD0082F6DD080E0C81688
:107ED00080E7D80618F4F601B7BEE895C0E0D1E017
:107EE00062D089930C17E1F7F0E0CF16F0E7DF06D8
:107EF00018F0F601B7BEE89568D007B600FCFDCFD4
:107F0000A601A0E0B1E02C9130E011968C91119780
:107F100090E0982F8827822B932B1296FA010C0160
:107F200087BEE89511244E5F5F4FF1E0A038BF0790
:107F300051F7F601A7BEE89507B600FCFDCF97BE46
:107F4000E89526C08437B1F42ED02DD0F82E2BD052
:107F50003CD0F601EF2C8F010F5F1F4F84911BD097
:107F6000EA94F801C1F70894C11CD11CFA94CF0C13
:107F7000D11C0EC0853739F428D08EE10CD085E9AC
:107F80000AD08FE07ACF813511F488E018D01DD067
:107F900080E101D065CF982F8091C00085FFFCCF94
:107FA0009093C60008958091C00087FFFCCF809118
:107FB000C00084FD01C0A8958091C6000895E0E648
:107FC000F0E098E1908380830895EDDF803219F02E
:107FD00088E0F5DFFFCF84E1DECF1F93182FE3DFCA
:107FE0001150E9F7F2DF1F91089580E0E8DFEE27F6
:047FF000FF270994CA
:027FFE00040479
:0400000300007E007B
:00000001FF
